{
  "_format": "hh-sol-artifact-1",
  "contractName": "UserRegistry",
  "sourceName": "contracts/UserRegistry.sol",
  "abi": [
    {
      "anonymous": false,
      "inputs": [
        {
          "indexed": true,
          "internalType": "address",
          "name": "userAddress",
          "type": "address"
        }
      ],
      "name": "ProfileUpdated",
      "type": "event"
    },
    {
      "anonymous": false,
      "inputs": [
        {
          "indexed": true,
          "internalType": "address",
          "name": "userAddress",
          "type": "address"
        },
        {
          "indexed": false,
          "internalType": "string",
          "name": "username",
          "type": "string"
        }
      ],
      "name": "UserRegistered",
      "type": "event"
    },
    {
      "inputs": [],
      "name": "getTotalUsers",
      "outputs": [
        {
          "internalType": "uint256",
          "name": "",
          "type": "uint256"
        }
      ],
      "stateMutability": "view",
      "type": "function"
    },
    {
      "inputs": [
        {
          "internalType": "address",
          "name": "_userAddress",
          "type": "address"
        }
      ],
      "name": "getUser",
      "outputs": [
        {
          "components": [
            {
              "internalType": "address",
              "name": "walletAddress",
              "type": "address"
            },
            {
              "internalType": "string",
              "name": "username",
              "type": "string"
            },
            {
              "internalType": "string",
              "name": "profileData",
              "type": "string"
            },
            {
              "internalType": "uint256",
              "name": "createdAt",
              "type": "uint256"
            },
            {
              "internalType": "bool",
              "name": "isActive",
              "type": "bool"
            }
          ],
          "internalType": "struct UserRegistry.User",
          "name": "",
          "type": "tuple"
        }
      ],
      "stateMutability": "view",
      "type": "function"
    },
    {
      "inputs": [
        {
          "internalType": "string",
          "name": "_username",
          "type": "string"
        }
      ],
      "name": "getUserByUsername",
      "outputs": [
        {
          "components": [
            {
              "internalType": "address",
              "name": "walletAddress",
              "type": "address"
            },
            {
              "internalType": "string",
              "name": "username",
              "type": "string"
            },
            {
              "internalType": "string",
              "name": "profileData",
              "type": "string"
            },
            {
              "internalType": "uint256",
              "name": "createdAt",
              "type": "uint256"
            },
            {
              "internalType": "bool",
              "name": "isActive",
              "type": "bool"
            }
          ],
          "internalType": "struct UserRegistry.User",
          "name": "",
          "type": "tuple"
        }
      ],
      "stateMutability": "view",
      "type": "function"
    },
    {
      "inputs": [
        {
          "internalType": "uint256",
          "name": "_start",
          "type": "uint256"
        },
        {
          "internalType": "uint256",
          "name": "_limit",
          "type": "uint256"
        }
      ],
      "name": "getUsers",
      "outputs": [
        {
          "internalType": "address[]",
          "name": "",
          "type": "address[]"
        }
      ],
      "stateMutability": "view",
      "type": "function"
    },
    {
      "inputs": [
        {
          "internalType": "address",
          "name": "",
          "type": "address"
        }
      ],
      "name": "isRegistered",
      "outputs": [
        {
          "internalType": "bool",
          "name": "",
          "type": "bool"
        }
      ],
      "stateMutability": "view",
      "type": "function"
    },
    {
      "inputs": [
        {
          "internalType": "string",
          "name": "_username",
          "type": "string"
        }
      ],
      "name": "isUsernameAvailable",
      "outputs": [
        {
          "internalType": "bool",
          "name": "",
          "type": "bool"
        }
      ],
      "stateMutability": "view",
      "type": "function"
    },
    {
      "inputs": [
        {
          "internalType": "string",
          "name": "_username",
          "type": "string"
        },
        {
          "internalType": "string",
          "name": "_profileData",
          "type": "string"
        }
      ],
      "name": "registerUser",
      "outputs": [],
      "stateMutability": "nonpayable",
      "type": "function"
    },
    {
      "inputs": [
        {
          "internalType": "string",
          "name": "_profileData",
          "type": "string"
        }
      ],
      "name": "updateProfile",
      "outputs": [],
      "stateMutability": "nonpayable",
      "type": "function"
    },
    {
      "inputs": [
        {
          "internalType": "uint256",
          "name": "",
          "type": "uint256"
        }
      ],
      "name": "userList",
      "outputs": [
        {
          "internalType": "address",
          "name": "",
          "type": "address"
        }
      ],
      "stateMutability": "view",
      "type": "function"
    },
    {
      "inputs": [
        {
          "internalType": "string",
          "name": "",
          "type": "string"
        }
      ],
      "name": "usernameToAddress",
      "outputs": [
        {
          "internalType": "address",
          "name": "",
          "type": "address"
        }
      ],
      "stateMutability": "view",
      "type": "function"
    },
    {
      "inputs": [
        {
          "internalType": "address",
          "name": "",
          "type": "address"
        }
      ],
      "name": "users",
      "outputs": [
        {
          "internalType": "address",
          "name": "walletAddress",
          "type": "address"
        },
        {
          "internalType": "string",
          "name": "username",
          "type": "string"
        },
        {
          "internalType": "string",
          "name": "profileData",
          "type": "string"
        },
        {
          "internalType": "uint256",
          "name": "createdAt",
          "type": "uint256"
        },
        {
          "internalType": "bool",
          "name": "isActive",
          "type": "bool"
        }
      ],
      "stateMutability": "view",
      "type": "function"
    }
  ],
  "bytecode": "0x608060405234801561001057600080fd5b5061129e806100206000396000f3fe608060405234801561001057600080fd5b50600436106100a85760003560e01c80639f4216e8116100715780639f4216e81461012f5780639f42af631461015a578063a87430ba1461016d578063c3c5a54714610191578063f69c6dec146101c4578063f825f143146101d757600080fd5b80629299e3146100ad5780631d2e4afd146100c257806345982a66146100d55780636f77926b146100fe5780639be572f61461011e575b600080fd5b6100c06100bb366004610e1e565b61020b565b005b6100c06100d0366004610e5b565b610350565b6100e86100e3366004610ebf565b610687565b6040516100f59190610ee1565b60405180910390f35b61011161010c366004610f2e565b6107cb565b6040516100f59190610fae565b6003546040519081526020016100f5565b61014261013d36600461101c565b6109a1565b6040516001600160a01b0390911681526020016100f5565b610111610168366004610e1e565b6109cb565b61018061017b366004610f2e565b610bb8565b6040516100f5959493929190611035565b6101b461019f366004610f2e565b60026020526000908152604090205460ff1681565b60405190151581526020016100f5565b6101b46101d2366004610e1e565b610d05565b6101426101e5366004610e1e565b80516020818301810180516001825292820191909301209152546001600160a01b031681565b3360009081526002602052604090205460ff166102655760405162461bcd60e51b8152602060048201526013602482015272155cd95c881b9bdd081c9959da5cdd195c9959606a1b60448201526064015b60405180910390fd5b3360009081526020819052604090206004015460ff166102bc5760405162461bcd60e51b81526020600482015260126024820152714163636f756e74206e6f742061637469766560701b604482015260640161025c565b60008151116103055760405162461bcd60e51b8152602060048201526015602482015274141c9bd99a5b194819185d18481c995c5d5a5c9959605a1b604482015260640161025c565b336000908152602081905260409020600201610321828261110e565b5060405133907fbe4ec58a792f909e102ee3d745d0c3b34a4d437a54d903c4db098d31c556422f90600090a250565b3360009081526002602052604090205460ff16156103b05760405162461bcd60e51b815260206004820152601760248201527f5573657220616c72656164792072656769737465726564000000000000000000604482015260640161025c565b6003825110156104025760405162461bcd60e51b815260206004820181905260248201527f557365726e616d6520746f6f2073686f727420286d696e203320636861727329604482015260640161025c565b6014825111156104545760405162461bcd60e51b815260206004820181905260248201527f557365726e616d6520746f6f206c6f6e6720286d617820323020636861727329604482015260640161025c565b60006001600160a01b031660018360405161046f91906111ce565b908152604051908190036020019020546001600160a01b0316146104ce5760405162461bcd60e51b81526020600482015260166024820152752ab9b2b93730b6b29030b63932b0b23c903a30b5b2b760511b604482015260640161025c565b60008151116105175760405162461bcd60e51b8152602060048201526015602482015274141c9bd99a5b194819185d18481c995c5d5a5c9959605a1b604482015260640161025c565b6040805160a08101825233808252602080830186815283850186905242606085015260016080850181905260009384529183905293909120825181546001600160a01b0319166001600160a01b0390911617815592519192919082019061057e908261110e565b5060408201516002820190610593908261110e565b50606082015160038201556080909101516004909101805460ff191691151591909117905560405133906001906105cb9085906111ce565b90815260408051918290036020908101832080546001600160a01b03959095166001600160a01b03199586161790553360008181526002909252918120805460ff191660019081179091556003805491820181559091527fc2575a0e9e593c00f959f8c92f12db2869c3395a3b0502d05e2516446f71f85b01805490931681179092557f48cac28ad4dc618e15f4c2dd5e97751182f166de97b25618318b2112aa951a2f9061067b9085906111ea565b60405180910390a25050565b60035460609083106106db5760405162461bcd60e51b815260206004820152601960248201527f537461727420696e646578206f7574206f6620626f756e647300000000000000604482015260640161025c565b60006106e78385611213565b6003549091508111156106f957506003545b60006107058583611226565b67ffffffffffffffff81111561071d5761071d610d7b565b604051908082528060200260200182016040528015610746578160200160208202803683370190505b509050845b828110156107c0576003818154811061076657610766611239565b6000918252602090912001546001600160a01b0316826107868884611226565b8151811061079657610796611239565b6001600160a01b0390921660209283029190910190910152806107b88161124f565b91505061074b565b509150505b92915050565b6107d3610d41565b6001600160a01b03821660009081526002602052604090205460ff1661082c5760405162461bcd60e51b815260206004820152600e60248201526d155cd95c881b9bdd08199bdd5b9960921b604482015260640161025c565b6001600160a01b0380831660009081526020818152604091829020825160a08101909352805490931682526001830180549293929184019161086d90611085565b80601f016020809104026020016040519081016040528092919081815260200182805461089990611085565b80156108e65780601f106108bb576101008083540402835291602001916108e6565b820191906000526020600020905b8154815290600101906020018083116108c957829003601f168201915b505050505081526020016002820180546108ff90611085565b80601f016020809104026020016040519081016040528092919081815260200182805461092b90611085565b80156109785780601f1061094d57610100808354040283529160200191610978565b820191906000526020600020905b81548152906001019060200180831161095b57829003601f168201915b50505091835250506003820154602082015260049091015460ff16151560409091015292915050565b600381815481106109b157600080fd5b6000918252602090912001546001600160a01b0316905081565b6109d3610d41565b60006001836040516109e591906111ce565b908152604051908190036020019020546001600160a01b0316905080610a425760405162461bcd60e51b8152602060048201526012602482015271155cd95c9b985b59481b9bdd08199bdd5b9960721b604482015260640161025c565b6001600160a01b0380821660009081526020818152604091829020825160a081019093528054909316825260018301805492939291840191610a8390611085565b80601f0160208091040260200160405190810160405280929190818152602001828054610aaf90611085565b8015610afc5780601f10610ad157610100808354040283529160200191610afc565b820191906000526020600020905b815481529060010190602001808311610adf57829003601f168201915b50505050508152602001600282018054610b1590611085565b80601f0160208091040260200160405190810160405280929190818152602001828054610b4190611085565b8015610b8e5780601f10610b6357610100808354040283529160200191610b8e565b820191906000526020600020905b815481529060010190602001808311610b7157829003601f168201915b50505091835250506003820154602082015260049091015460ff1615156040909101529392505050565b600060208190529081526040902080546001820180546001600160a01b039092169291610be490611085565b80601f0160208091040260200160405190810160405280929190818152602001828054610c1090611085565b8015610c5d5780601f10610c3257610100808354040283529160200191610c5d565b820191906000526020600020905b815481529060010190602001808311610c4057829003601f168201915b505050505090806002018054610c7290611085565b80601f0160208091040260200160405190810160405280929190818152602001828054610c9e90611085565b8015610ceb5780601f10610cc057610100808354040283529160200191610ceb565b820191906000526020600020905b815481529060010190602001808311610cce57829003601f168201915b50505050600383015460049093015491929160ff16905085565b6000806001600160a01b0316600183604051610d2191906111ce565b908152604051908190036020019020546001600160a01b03161492915050565b6040518060a0016040528060006001600160a01b031681526020016060815260200160608152602001600081526020016000151581525090565b634e487b7160e01b600052604160045260246000fd5b600082601f830112610da257600080fd5b813567ffffffffffffffff80821115610dbd57610dbd610d7b565b604051601f8301601f19908116603f01168101908282118183101715610de557610de5610d7b565b81604052838152866020858801011115610dfe57600080fd5b836020870160208301376000602085830101528094505050505092915050565b600060208284031215610e3057600080fd5b813567ffffffffffffffff811115610e4757600080fd5b610e5384828501610d91565b949350505050565b60008060408385031215610e6e57600080fd5b823567ffffffffffffffff80821115610e8657600080fd5b610e9286838701610d91565b93506020850135915080821115610ea857600080fd5b50610eb585828601610d91565b9150509250929050565b60008060408385031215610ed257600080fd5b50508035926020909101359150565b6020808252825182820181905260009190848201906040850190845b81811015610f225783516001600160a01b031683529284019291840191600101610efd565b50909695505050505050565b600060208284031215610f4057600080fd5b81356001600160a01b0381168114610f5757600080fd5b9392505050565b60005b83811015610f79578181015183820152602001610f61565b50506000910152565b60008151808452610f9a816020860160208601610f5e565b601f01601f19169290920160200192915050565b602080825282516001600160a01b03168282015282015160a06040830152600090610fdc60c0840182610f82565b90506040840151601f19848303016060850152610ff98282610f82565b915050606084015160808401526080840151151560a08401528091505092915050565b60006020828403121561102e57600080fd5b5035919050565b6001600160a01b038616815260a06020820181905260009061105990830187610f82565b828103604084015261106b8187610f82565b606084019590955250509015156080909101529392505050565b600181811c9082168061109957607f821691505b6020821081036110b957634e487b7160e01b600052602260045260246000fd5b50919050565b601f82111561110957600081815260208120601f850160051c810160208610156110e65750805b601f850160051c820191505b81811015611105578281556001016110f2565b5050505b505050565b815167ffffffffffffffff81111561112857611128610d7b565b61113c816111368454611085565b846110bf565b602080601f83116001811461117157600084156111595750858301515b600019600386901b1c1916600185901b178555611105565b600085815260208120601f198616915b828110156111a057888601518255948401946001909101908401611181565b50858210156111be5787850151600019600388901b60f8161c191681555b5050505050600190811b01905550565b600082516111e0818460208701610f5e565b9190910192915050565b602081526000610f576020830184610f82565b634e487b7160e01b600052601160045260246000fd5b808201808211156107c5576107c56111fd565b818103818111156107c5576107c56111fd565b634e487b7160e01b600052603260045260246000fd5b600060018201611261576112616111fd565b506001019056fea2646970667358221220115991d7118b31c86d2b3ae27e351f905723b589636657f942fdff1cc0a9535e64736f6c63430008130033",
  "linkReferences": {},
  "deployedLinkReferences": {}
}