{
  "_format": "hh-sol-artifact-1",
  "contractName": "PostManager",
  "sourceName": "contracts/PostManager.sol",
  "abi": [
    {
      "anonymous": false,
      "inputs": [
        {
          "indexed": true,
          "internalType": "uint256",
          "name": "postId",
          "type": "uint256"
        },
        {
          "indexed": true,
          "internalType": "address",
          "name": "author",
          "type": "address"
        },
        {
          "indexed": false,
          "internalType": "string",
          "name": "title",
          "type": "string"
        }
      ],
      "name": "PostCreated",
      "type": "event"
    },
    {
      "anonymous": false,
      "inputs": [
        {
          "indexed": true,
          "internalType": "uint256",
          "name": "postId",
          "type": "uint256"
        },
        {
          "indexed": true,
          "internalType": "address",
          "name": "liker",
          "type": "address"
        }
      ],
      "name": "PostLiked",
      "type": "event"
    },
    {
      "anonymous": false,
      "inputs": [
        {
          "indexed": true,
          "internalType": "uint256",
          "name": "postId",
          "type": "uint256"
        },
        {
          "indexed": true,
          "internalType": "address",
          "name": "author",
          "type": "address"
        }
      ],
      "name": "PostPublished",
      "type": "event"
    },
    {
      "anonymous": false,
      "inputs": [
        {
          "indexed": true,
          "internalType": "uint256",
          "name": "postId",
          "type": "uint256"
        }
      ],
      "name": "PostViewed",
      "type": "event"
    },
    {
      "inputs": [
        {
          "internalType": "uint256",
          "name": "",
          "type": "uint256"
        }
      ],
      "name": "allPosts",
      "outputs": [
        {
          "internalType": "uint256",
          "name": "",
          "type": "uint256"
        }
      ],
      "stateMutability": "view",
      "type": "function"
    },
    {
      "inputs": [
        {
          "internalType": "address",
          "name": "",
          "type": "address"
        },
        {
          "internalType": "uint256",
          "name": "",
          "type": "uint256"
        }
      ],
      "name": "authorPosts",
      "outputs": [
        {
          "internalType": "uint256",
          "name": "",
          "type": "uint256"
        }
      ],
      "stateMutability": "view",
      "type": "function"
    },
    {
      "inputs": [
        {
          "internalType": "uint256",
          "name": "_postId",
          "type": "uint256"
        },
        {
          "internalType": "address",
          "name": "_user",
          "type": "address"
        }
      ],
      "name": "checkIfLiked",
      "outputs": [
        {
          "internalType": "bool",
          "name": "",
          "type": "bool"
        }
      ],
      "stateMutability": "view",
      "type": "function"
    },
    {
      "inputs": [
        {
          "internalType": "string",
          "name": "_title",
          "type": "string"
        },
        {
          "internalType": "string",
          "name": "_content",
          "type": "string"
        },
        {
          "internalType": "string",
          "name": "_category",
          "type": "string"
        },
        {
          "internalType": "bool",
          "name": "_publishNow",
          "type": "bool"
        }
      ],
      "name": "createPost",
      "outputs": [],
      "stateMutability": "nonpayable",
      "type": "function"
    },
    {
      "inputs": [
        {
          "internalType": "uint256",
          "name": "_postId",
          "type": "uint256"
        }
      ],
      "name": "deletePost",
      "outputs": [],
      "stateMutability": "nonpayable",
      "type": "function"
    },
    {
      "inputs": [
        {
          "internalType": "uint256",
          "name": "_postId",
          "type": "uint256"
        }
      ],
      "name": "getPost",
      "outputs": [
        {
          "components": [
            {
              "internalType": "uint256",
              "name": "id",
              "type": "uint256"
            },
            {
              "internalType": "address",
              "name": "author",
              "type": "address"
            },
            {
              "internalType": "string",
              "name": "title",
              "type": "string"
            },
            {
              "internalType": "string",
              "name": "content",
              "type": "string"
            },
            {
              "internalType": "string",
              "name": "category",
              "type": "string"
            },
            {
              "internalType": "enum PostManager.Status",
              "name": "status",
              "type": "uint8"
            },
            {
              "internalType": "uint256",
              "name": "createdAt",
              "type": "uint256"
            },
            {
              "internalType": "uint256",
              "name": "likes",
              "type": "uint256"
            },
            {
              "internalType": "uint256",
              "name": "views",
              "type": "uint256"
            }
          ],
          "internalType": "struct PostManager.Post",
          "name": "",
          "type": "tuple"
        }
      ],
      "stateMutability": "view",
      "type": "function"
    },
    {
      "inputs": [
        {
          "internalType": "address",
          "name": "_author",
          "type": "address"
        }
      ],
      "name": "getPostsByAuthor",
      "outputs": [
        {
          "internalType": "uint256[]",
          "name": "",
          "type": "uint256[]"
        }
      ],
      "stateMutability": "view",
      "type": "function"
    },
    {
      "inputs": [],
      "name": "getPublishedPosts",
      "outputs": [
        {
          "internalType": "uint256[]",
          "name": "",
          "type": "uint256[]"
        }
      ],
      "stateMutability": "view",
      "type": "function"
    },
    {
      "inputs": [],
      "name": "getTotalPosts",
      "outputs": [
        {
          "internalType": "uint256",
          "name": "",
          "type": "uint256"
        }
      ],
      "stateMutability": "view",
      "type": "function"
    },
    {
      "inputs": [
        {
          "internalType": "uint256",
          "name": "",
          "type": "uint256"
        },
        {
          "internalType": "address",
          "name": "",
          "type": "address"
        }
      ],
      "name": "hasLiked",
      "outputs": [
        {
          "internalType": "bool",
          "name": "",
          "type": "bool"
        }
      ],
      "stateMutability": "view",
      "type": "function"
    },
    {
      "inputs": [
        {
          "internalType": "uint256",
          "name": "_postId",
          "type": "uint256"
        }
      ],
      "name": "likePost",
      "outputs": [],
      "stateMutability": "nonpayable",
      "type": "function"
    },
    {
      "inputs": [
        {
          "internalType": "uint256",
          "name": "",
          "type": "uint256"
        }
      ],
      "name": "posts",
      "outputs": [
        {
          "internalType": "uint256",
          "name": "id",
          "type": "uint256"
        },
        {
          "internalType": "address",
          "name": "author",
          "type": "address"
        },
        {
          "internalType": "string",
          "name": "title",
          "type": "string"
        },
        {
          "internalType": "string",
          "name": "content",
          "type": "string"
        },
        {
          "internalType": "string",
          "name": "category",
          "type": "string"
        },
        {
          "internalType": "enum PostManager.Status",
          "name": "status",
          "type": "uint8"
        },
        {
          "internalType": "uint256",
          "name": "createdAt",
          "type": "uint256"
        },
        {
          "internalType": "uint256",
          "name": "likes",
          "type": "uint256"
        },
        {
          "internalType": "uint256",
          "name": "views",
          "type": "uint256"
        }
      ],
      "stateMutability": "view",
      "type": "function"
    },
    {
      "inputs": [
        {
          "internalType": "uint256",
          "name": "_postId",
          "type": "uint256"
        }
      ],
      "name": "publishPost",
      "outputs": [],
      "stateMutability": "nonpayable",
      "type": "function"
    },
    {
      "inputs": [
        {
          "internalType": "uint256",
          "name": "_postId",
          "type": "uint256"
        }
      ],
      "name": "unlikePost",
      "outputs": [],
      "stateMutability": "nonpayable",
      "type": "function"
    },
    {
      "inputs": [
        {
          "internalType": "uint256",
          "name": "_postId",
          "type": "uint256"
        },
        {
          "internalType": "string",
          "name": "_title",
          "type": "string"
        },
        {
          "internalType": "string",
          "name": "_content",
          "type": "string"
        },
        {
          "internalType": "string",
          "name": "_category",
          "type": "string"
        }
      ],
      "name": "updatePost",
      "outputs": [],
      "stateMutability": "nonpayable",
      "type": "function"
    },
    {
      "inputs": [
        {
          "internalType": "uint256",
          "name": "_postId",
          "type": "uint256"
        }
      ],
      "name": "viewPost",
      "outputs": [],
      "stateMutability": "nonpayable",
      "type": "function"
    }
  ],
  "bytecode": "0x6080604052600160005534801561001557600080fd5b50611b2a806100256000396000f3fe608060405234801561001057600080fd5b50600436106101005760003560e01c8063718ce2bc11610097578063e0b8c05111610066578063e0b8c05114610246578063e71ef23d14610259578063f4ab24991461026c578063fa188de91461027f57600080fd5b8063718ce2bc146101cf578063725009d3146101e25780638fb7092c146101f5578063cc05adb01461023357600080fd5b806340731c24116100d357806340731c24146101735780635725420e146101935780635fe226b4146101a65780636df4973c146101bc57600080fd5b806303c0f7d214610105578063094cd5ee1461011a5780630b1e7f831461012d5780632b2c46971461015e575b600080fd5b610118610113366004611476565b610292565b005b610118610128366004611476565b610382565b61014061013b366004611476565b610430565b6040516101559998979695949392919061150d565b60405180910390f35b61016661061f565b6040516101559190611591565b610186610181366004611476565b6107c9565b60405161015591906115d5565b6101186101a1366004611476565b610a45565b6101ae610b91565b604051908152602001610155565b6101ae6101ca3660046116b3565b610ba7565b6101ae6101dd366004611476565b610bd8565b6101186101f0366004611476565b610bf9565b6102236102033660046116dd565b600360209081526000928352604080842090915290825290205460ff1681565b6040519015158152602001610155565b6101186102413660046117ac565b610d6d565b6102236102543660046116dd565b610fac565b61011861026736600461183e565b610fd9565b61016661027a3660046118de565b6112cc565b61011861028d366004611476565b611338565b6000811180156102a3575060005481105b6102c85760405162461bcd60e51b81526004016102bf90611900565b60405180910390fd5b600160008281526001602052604090206005015460ff1660028111156102f0576102f06114d5565b146103325760405162461bcd60e51b8152602060048201526012602482015271141bdcdd081b9bdd081c1d589b1a5cda195960721b60448201526064016102bf565b600081815260016020526040812060080180549161034f83611943565b909155505060405181907fdab4570c54ea37c998b5f92ee5767a33de9f2d34c630565432464172a97d8ee390600090a250565b600081118015610393575060005481105b6103af5760405162461bcd60e51b81526004016102bf90611900565b600081815260016020819052604090912001546001600160a01b031633146104125760405162461bcd60e51b81526020600482015260166024820152754f6e6c7920617574686f722063616e2064656c65746560501b60448201526064016102bf565b6000908152600160205260409020600501805460ff19166002179055565b60016020819052600091825260409091208054918101546002820180546001600160a01b0390921692916104639061195c565b80601f016020809104026020016040519081016040528092919081815260200182805461048f9061195c565b80156104dc5780601f106104b1576101008083540402835291602001916104dc565b820191906000526020600020905b8154815290600101906020018083116104bf57829003601f168201915b5050505050908060030180546104f19061195c565b80601f016020809104026020016040519081016040528092919081815260200182805461051d9061195c565b801561056a5780601f1061053f5761010080835404028352916020019161056a565b820191906000526020600020905b81548152906001019060200180831161054d57829003601f168201915b50505050509080600401805461057f9061195c565b80601f01602080910402602001604051908101604052809291908181526020018280546105ab9061195c565b80156105f85780601f106105cd576101008083540402835291602001916105f8565b820191906000526020600020905b8154815290600101906020018083116105db57829003601f168201915b50505050600583015460068401546007850154600890950154939460ff9092169390925089565b60045460609060009067ffffffffffffffff81111561064057610640611709565b604051908082528060200260200182016040528015610669578160200160208202803683370190505b5090506000805b6004548110156107255760018060006004848154811061069257610692611996565b6000918252602080832090910154835282019290925260400190206005015460ff1660028111156106c5576106c56114d5565b0361071357600481815481106106dd576106dd611996565b90600052602060002001548383815181106106fa576106fa611996565b60209081029190910101528161070f81611943565b9250505b8061071d81611943565b915050610670565b5060008167ffffffffffffffff81111561074157610741611709565b60405190808252806020026020018201604052801561076a578160200160208202803683370190505b50905060005b828110156107c15783818151811061078a5761078a611996565b60200260200101518282815181106107a4576107a4611996565b6020908102919091010152806107b981611943565b915050610770565b509392505050565b6107d1611410565b6000821180156107e2575060005482105b6107fe5760405162461bcd60e51b81526004016102bf90611900565b60008281526001602081815260409283902083516101208101855281548152928101546001600160a01b03169183019190915260028101805492939192918401916108489061195c565b80601f01602080910402602001604051908101604052809291908181526020018280546108749061195c565b80156108c15780601f10610896576101008083540402835291602001916108c1565b820191906000526020600020905b8154815290600101906020018083116108a457829003601f168201915b505050505081526020016003820180546108da9061195c565b80601f01602080910402602001604051908101604052809291908181526020018280546109069061195c565b80156109535780601f1061092857610100808354040283529160200191610953565b820191906000526020600020905b81548152906001019060200180831161093657829003601f168201915b5050505050815260200160048201805461096c9061195c565b80601f01602080910402602001604051908101604052809291908181526020018280546109989061195c565b80156109e55780601f106109ba576101008083540402835291602001916109e5565b820191906000526020600020905b8154815290600101906020018083116109c857829003601f168201915b5050509183525050600582015460209091019060ff166002811115610a0c57610a0c6114d5565b6002811115610a1d57610a1d6114d5565b8152600682015460208201526007820154604082015260089091015460609091015292915050565b600081118015610a56575060005481105b610a725760405162461bcd60e51b81526004016102bf90611900565b600081815260016020819052604090912001546001600160a01b03163314610adc5760405162461bcd60e51b815260206004820152601760248201527f4f6e6c7920617574686f722063616e207075626c69736800000000000000000060448201526064016102bf565b60008181526001602052604081206005015460ff166002811115610b0257610b026114d5565b14610b455760405162461bcd60e51b8152602060048201526013602482015272141bdcdd081a5cc81b9bdd081848191c98599d606a1b60448201526064016102bf565b6000818152600160208190526040808320600501805460ff191690921790915551339183917f3fb6a407a06adcfcb426961770c0cb523a7f315c73d600e48d387c3698bddf649190a350565b60006001600054610ba291906119ac565b905090565b60026020528160005260406000208181548110610bc357600080fd5b90600052602060002001600091509150505481565b60048181548110610be857600080fd5b600091825260209091200154905081565b600081118015610c0a575060005481105b610c265760405162461bcd60e51b81526004016102bf90611900565b600160008281526001602052604090206005015460ff166002811115610c4e57610c4e6114d5565b14610c905760405162461bcd60e51b8152602060048201526012602482015271141bdcdd081b9bdd081c1d589b1a5cda195960721b60448201526064016102bf565b600081815260036020908152604080832033845290915290205460ff1615610cfa5760405162461bcd60e51b815260206004820152601760248201527f416c7265616479206c696b6564207468697320706f737400000000000000000060448201526064016102bf565b60008181526003602090815260408083203384528252808320805460ff191660019081179091558484529091528120600701805491610d3883611943565b9091555050604051339082907fcf765d6f163c9b0d832e2a94f4c8e9bffd32a2c3ca5fdbb8cc67b5fe1441f41390600090a350565b600084118015610d7e575060005484105b610d9a5760405162461bcd60e51b81526004016102bf90611900565b600084815260016020819052604090912001546001600160a01b03163314610dfd5760405162461bcd60e51b81526020600482015260166024820152754f6e6c7920617574686f722063616e2075706461746560501b60448201526064016102bf565b600260008581526001602052604090206005015460ff166002811115610e2557610e256114d5565b03610e725760405162461bcd60e51b815260206004820152601a60248201527f43616e6e6f74207570646174652064656c6574656420706f737400000000000060448201526064016102bf565b6000835111610ebb5760405162461bcd60e51b81526020600482015260156024820152745469746c652063616e6e6f7420626520656d70747960581b60448201526064016102bf565b6000825111610f065760405162461bcd60e51b8152602060048201526017602482015276436f6e74656e742063616e6e6f7420626520656d70747960481b60448201526064016102bf565b6000815111610f525760405162461bcd60e51b815260206004820152601860248201527743617465676f72792063616e6e6f7420626520656d70747960401b60448201526064016102bf565b6000848152600160205260409020600201610f6d8482611a0a565b506000848152600160205260409020600301610f898382611a0a565b506000848152600160205260409020600401610fa58282611a0a565b5050505050565b60008281526003602090815260408083206001600160a01b038516845290915290205460ff165b92915050565b60008451116110225760405162461bcd60e51b81526020600482015260156024820152745469746c652063616e6e6f7420626520656d70747960581b60448201526064016102bf565b600083511161106d5760405162461bcd60e51b8152602060048201526017602482015276436f6e74656e742063616e6e6f7420626520656d70747960481b60448201526064016102bf565b60008251116110b95760405162461bcd60e51b815260206004820152601860248201527743617465676f72792063616e6e6f7420626520656d70747960401b60448201526064016102bf565b60008054908190806110ca83611943565b91905055506000826110dd5760006110e0565b60015b9050604051806101200160405280838152602001336001600160a01b03168152602001878152602001868152602001858152602001826002811115611127576111276114d5565b815242602080830191909152600060408084018290526060909301819052858152600180835290839020845181559184015190820180546001600160a01b0319166001600160a01b0390921691909117905590820151600282019061118c9082611a0a565b50606082015160038201906111a19082611a0a565b50608082015160048201906111b69082611a0a565b5060a082015160058201805460ff191660018360028111156111da576111da6114d5565b021790555060c0820151600682015560e08201516007820155610100909101516008909101553360008181526002602090815260408083208054600181810183559185529284209092018690556004805492830181559092527f8a35acfbc15ff81a39ae7d344fd709f28e8600b4aa8c65c6b64bfe7fe36bd19b018490555183907f8e40a51278abe2f4b410c0a96ff0bdd024b22666ca334062bf72afd596984bd690611288908a90611aca565b60405180910390a382156112c457604051339083907f3fb6a407a06adcfcb426961770c0cb523a7f315c73d600e48d387c3698bddf6490600090a35b505050505050565b6001600160a01b03811660009081526002602090815260409182902080548351818402810184019094528084526060939283018282801561132c57602002820191906000526020600020905b815481526020019060010190808311611318575b50505050509050919050565b600081118015611349575060005481105b6113655760405162461bcd60e51b81526004016102bf90611900565b600081815260036020908152604080832033845290915290205460ff166113ce5760405162461bcd60e51b815260206004820152601760248201527f486176656e2774206c696b6564207468697320706f737400000000000000000060448201526064016102bf565b60008181526003602090815260408083203384528252808320805460ff191690558383526001909152812060070180549161140883611add565b919050555050565b6040518061012001604052806000815260200160006001600160a01b031681526020016060815260200160608152602001606081526020016000600281111561145b5761145b6114d5565b81526020016000815260200160008152602001600081525090565b60006020828403121561148857600080fd5b5035919050565b6000815180845260005b818110156114b557602081850181015186830182015201611499565b506000602082860101526020601f19601f83011685010191505092915050565b634e487b7160e01b600052602160045260246000fd5b6003811061150957634e487b7160e01b600052602160045260246000fd5b9052565b8981526001600160a01b0389166020820152610120604082018190526000906115388382018b61148f565b9050828103606084015261154c818a61148f565b90508281036080840152611560818961148f565b91505061157060a08301876114eb565b8460c08301528360e0830152826101008301529a9950505050505050505050565b6020808252825182820181905260009190848201906040850190845b818110156115c9578351835292840192918401916001016115ad565b50909695505050505050565b6020815281516020820152600060208301516115fc60408401826001600160a01b03169052565b50604083015161012080606085015261161961014085018361148f565b91506060850151601f1980868503016080870152611637848361148f565b935060808701519150808685030160a087015250611655838261148f565b92505060a085015161166a60c08601826114eb565b5060c085015160e085015260e0850151610100818187015280870151838701525050508091505092915050565b80356001600160a01b03811681146116ae57600080fd5b919050565b600080604083850312156116c657600080fd5b6116cf83611697565b946020939093013593505050565b600080604083850312156116f057600080fd5b8235915061170060208401611697565b90509250929050565b634e487b7160e01b600052604160045260246000fd5b600082601f83011261173057600080fd5b813567ffffffffffffffff8082111561174b5761174b611709565b604051601f8301601f19908116603f0116810190828211818310171561177357611773611709565b8160405283815286602085880101111561178c57600080fd5b836020870160208301376000602085830101528094505050505092915050565b600080600080608085870312156117c257600080fd5b84359350602085013567ffffffffffffffff808211156117e157600080fd5b6117ed8883890161171f565b9450604087013591508082111561180357600080fd5b61180f8883890161171f565b9350606087013591508082111561182557600080fd5b506118328782880161171f565b91505092959194509250565b6000806000806080858703121561185457600080fd5b843567ffffffffffffffff8082111561186c57600080fd5b6118788883890161171f565b9550602087013591508082111561188e57600080fd5b61189a8883890161171f565b945060408701359150808211156118b057600080fd5b506118bd8782880161171f565b925050606085013580151581146118d357600080fd5b939692955090935050565b6000602082840312156118f057600080fd5b6118f982611697565b9392505050565b602080825260139082015272141bdcdd08191bd95cc81b9bdd08195e1a5cdd606a1b604082015260600190565b634e487b7160e01b600052601160045260246000fd5b6000600182016119555761195561192d565b5060010190565b600181811c9082168061197057607f821691505b60208210810361199057634e487b7160e01b600052602260045260246000fd5b50919050565b634e487b7160e01b600052603260045260246000fd5b81810381811115610fd357610fd361192d565b601f821115611a0557600081815260208120601f850160051c810160208610156119e65750805b601f850160051c820191505b818110156112c4578281556001016119f2565b505050565b815167ffffffffffffffff811115611a2457611a24611709565b611a3881611a32845461195c565b846119bf565b602080601f831160018114611a6d5760008415611a555750858301515b600019600386901b1c1916600185901b1785556112c4565b600085815260208120601f198616915b82811015611a9c57888601518255948401946001909101908401611a7d565b5085821015611aba5787850151600019600388901b60f8161c191681555b5050505050600190811b01905550565b6020815260006118f9602083018461148f565b600081611aec57611aec61192d565b50600019019056fea26469706673582212207fe680903b42a95228209fada8f9f8c9b6df3ffd14f116a9f35ab29d47343bcd64736f6c63430008130033",
  "linkReferences": {},
  "deployedLinkReferences": {}
}